{
  "contractName": "VoteBox",
  "abi": [
    {
      "inputs": [
        {
          "internalType": "address",
          "name": "mcbAddress",
          "type": "address"
        }
      ],
      "stateMutability": "nonpayable",
      "type": "constructor"
    },
    {
      "anonymous": false,
      "inputs": [
        {
          "indexed": true,
          "internalType": "uint256",
          "name": "id",
          "type": "uint256"
        },
        {
          "indexed": false,
          "internalType": "string",
          "name": "link",
          "type": "string"
        },
        {
          "indexed": false,
          "internalType": "uint256",
          "name": "beginBlock",
          "type": "uint256"
        },
        {
          "indexed": false,
          "internalType": "uint256",
          "name": "endBlock",
          "type": "uint256"
        }
      ],
      "name": "Proposal",
      "type": "event"
    },
    {
      "anonymous": false,
      "inputs": [
        {
          "indexed": true,
          "internalType": "address",
          "name": "voter",
          "type": "address"
        },
        {
          "indexed": true,
          "internalType": "uint256",
          "name": "id",
          "type": "uint256"
        },
        {
          "indexed": false,
          "internalType": "enum VoteBox.Content",
          "name": "voteContent",
          "type": "uint8"
        }
      ],
      "name": "Vote",
      "type": "event"
    },
    {
      "inputs": [],
      "name": "MIN_PERIOD",
      "outputs": [
        {
          "internalType": "uint256",
          "name": "",
          "type": "uint256"
        }
      ],
      "stateMutability": "view",
      "type": "function"
    },
    {
      "inputs": [],
      "name": "MIN_PROPOSAL_MCB",
      "outputs": [
        {
          "internalType": "uint256",
          "name": "",
          "type": "uint256"
        }
      ],
      "stateMutability": "view",
      "type": "function"
    },
    {
      "inputs": [],
      "name": "mcb",
      "outputs": [
        {
          "internalType": "contract IERC20",
          "name": "",
          "type": "address"
        }
      ],
      "stateMutability": "view",
      "type": "function"
    },
    {
      "inputs": [
        {
          "internalType": "uint256",
          "name": "",
          "type": "uint256"
        }
      ],
      "name": "proposals",
      "outputs": [
        {
          "internalType": "string",
          "name": "link",
          "type": "string"
        },
        {
          "internalType": "uint256",
          "name": "beginBlock",
          "type": "uint256"
        },
        {
          "internalType": "uint256",
          "name": "endBlock",
          "type": "uint256"
        }
      ],
      "stateMutability": "view",
      "type": "function"
    },
    {
      "inputs": [],
      "name": "totalProposals",
      "outputs": [
        {
          "internalType": "uint256",
          "name": "",
          "type": "uint256"
        }
      ],
      "stateMutability": "view",
      "type": "function"
    },
    {
      "inputs": [
        {
          "internalType": "string",
          "name": "link",
          "type": "string"
        },
        {
          "internalType": "uint256",
          "name": "beginBlock",
          "type": "uint256"
        },
        {
          "internalType": "uint256",
          "name": "endBlock",
          "type": "uint256"
        }
      ],
      "name": "propose",
      "outputs": [],
      "stateMutability": "nonpayable",
      "type": "function"
    },
    {
      "inputs": [
        {
          "internalType": "uint256",
          "name": "id",
          "type": "uint256"
        },
        {
          "internalType": "enum VoteBox.Content",
          "name": "voteContent",
          "type": "uint8"
        }
      ],
      "name": "vote",
      "outputs": [],
      "stateMutability": "nonpayable",
      "type": "function"
    }
  ],
  "bytecode": "0x608060405234801561001057600080fd5b506040516108ec3803806108ec8339818101604052602081101561003357600080fd5b5051600080546001600160a01b039092166001600160a01b0319909216919091179055610887806100656000396000f3fe608060405234801561001057600080fd5b506004361061007d5760003560e01c806381192eb71161005b57806381192eb7146101b7578063943e8216146101db578063a78d80fc14610201578063bbccf154146102095761007d565b8063013cf08b146100825780632aa77c4c146101255780635e3c97731461019d575b600080fd5b61009f6004803603602081101561009857600080fd5b5035610211565b6040518080602001848152602001838152602001828103825285818151815260200191508051906020019080838360005b838110156100e85781810151838201526020016100d0565b50505050905090810190601f1680156101155780820380516001836020036101000a031916815260200191505b5094505050505060405180910390f35b61019b6004803603606081101561013b57600080fd5b81019060208101813564010000000081111561015657600080fd5b82018360208201111561016857600080fd5b8035906020019184600183028401116401000000008311171561018a57600080fd5b9193509150803590602001356102cd565b005b6101a561058c565b60408051918252519081900360200190f35b6101bf61059a565b604080516001600160a01b039092168252519081900360200190f35b61019b600480360360408110156101f157600080fd5b508035906020013560ff166105a9565b6101a561074b565b6101a5610752565b6001818154811061021e57fe5b60009182526020918290206003919091020180546040805160026001841615610100026000190190931692909204601f8101859004850283018501909152808252919350918391908301828280156102b75780601f1061028c576101008083540402835291602001916102b7565b820191906000526020600020905b81548152906001019060200180831161029a57829003601f168201915b5050505050908060010154908060020154905083565b600054604080516370a0823160e01b8152336004820152905169d3c21bcecceda1000000926001600160a01b0316916370a08231916024808301926020929190829003018186803b15801561032157600080fd5b505afa158015610335573d6000803e3d6000fd5b505050506040513d602081101561034b57600080fd5b505110156103a0576040805162461bcd60e51b815260206004820152601b60248201527f70726f706f73616c2070726976696c6567652072657175697265640000000000604482015290519081900360640190fd5b826103df576040805162461bcd60e51b815260206004820152600a602482015269656d707479206c696e6b60b01b604482015290519081900360640190fd5b81431115610423576040805162461bcd60e51b815260206004820152600c60248201526b1bdb19081c1c9bdc1bdcd85b60a21b604482015290519081900360640190fd5b806104368361168063ffffffff61075816565b111561047f576040805162461bcd60e51b81526020600482015260136024820152721c195c9a5bd9081a5cc81d1bdbc81cda1bdc9d606a1b604482015290519081900360640190fd5b6040805160806020601f870181900402820181019092526060810185815260019282919088908890819085018382808284376000920182905250938552505050602080830187905260409092018590528354600181018555938152819020825180519394600302909101926104f792849201906107b9565b506020820151816001015560408201518160020155505060018080549050037f60889d4da53649cd6c3e5b75075c9436fbb04154400e5f9a94d57c99f267fc308585858560405180806020018481526020018381526020018281038252868682818152602001925080828437600083820152604051601f909101601f191690920182900397509095505050505050a250505050565b69d3c21bcecceda100000081565b6000546001600160a01b031681565b60015482106105ec576040805162461bcd60e51b815260206004820152600a6024820152691a5b9d985b1a59081a5960b21b604482015290519081900360640190fd5b60008160028111156105fa57fe5b141561063f576040805162461bcd60e51b815260206004820152600f60248201526e1a5b9d985b1a590818dbdb9d195b9d608a1b604482015290519081900360640190fd5b436001838154811061064d57fe5b906000526020600020906003020160010154111561069c576040805162461bcd60e51b81526020600482015260076024820152661e103132b3b4b760c91b604482015290519081900360640190fd5b600182815481106106a957fe5b9060005260206000209060030201600201544311156106f7576040805162461bcd60e51b81526020600482015260056024820152640f88195b9960da1b604482015290519081900360640190fd5b81336001600160a01b03167fea646db319bf204816f80359be35bfd60d0daea88ac98b858a99323eb80681bc836040518082600281111561073457fe5b60ff16815260200191505060405180910390a35050565b6001545b90565b61168081565b6000828201838110156107b2576040805162461bcd60e51b815260206004820152601b60248201527f536166654d6174683a206164646974696f6e206f766572666c6f770000000000604482015290519081900360640190fd5b9392505050565b828054600181600116156101000203166002900490600052602060002090601f016020900481019282601f106107fa57805160ff1916838001178555610827565b82800160010185558215610827579182015b8281111561082757825182559160200191906001019061080c565b50610833929150610837565b5090565b61074f91905b80821115610833576000815560010161083d56fea2646970667358221220b8fbc369f43773e2fe73d27afe8c52d3ae3a5c74bad7245a43704924ea8af5f264736f6c634300060a0033",
  "immutableReferences": {},
  "source": "// SPDX-License-Identifier: UNLICENSED\npragma solidity 0.6.10;\n\nimport \"@openzeppelin/contracts/math/SafeMath.sol\";\nimport \"@openzeppelin/contracts/token/ERC20/IERC20.sol\";\n\n/**\n * @title A simple smart contract which only records everyone’s voting on each proposal.\n */\ncontract VoteBox {\n    using SafeMath for uint256;\n\n    // Meta data\n    struct Meta {\n        string link;\n        uint256 beginBlock;\n        uint256 endBlock;\n    }\n\n    // Vote content\n    enum Content { INVALID, FOR, AGAINST }\n\n    // Min MCB for creating a new proposal\n    uint256 public constant MIN_PROPOSAL_MCB = 1000000 * 10**18; // 1% of MCB\n\n    // Min voting period in blocks. 1 day for 15s/block\n    uint256 public constant MIN_PERIOD = 5760;\n\n    // MCB address\n    IERC20 public mcb;\n\n    // All proposal meta data\n    Meta[] public proposals;\n\n    /**\n     * @dev The new proposal is created\n     */\n    event Proposal(uint256 indexed id, string link, uint256 beginBlock, uint256 endBlock);\n\n    /**\n     * @dev Someone changes his/her vote on the proposal\n     */\n    event Vote(address indexed voter, uint256 indexed id, Content voteContent);\n\n    /**\n     * @dev    Constructor\n     * @param  mcbAddress MCB address\n     */\n    constructor(address mcbAddress)\n        public\n    {\n        mcb = IERC20(mcbAddress);\n    }\n\n    /**\n     * @dev    Accessor to the total number of proposal\n     */\n    function totalProposals()\n        external view returns (uint256)\n    {\n        return proposals.length;\n    }\n\n    /**\n     * @dev    Create a new proposal, need a proposal privilege\n     * @param  link       The forum link of the proposal\n     * @param  beginBlock Voting is enabled between [begin block, end block]\n     * @param  endBlock   Voting is enabled between [begin block, end block]\n     */\n    function propose(string calldata link, uint256 beginBlock, uint256 endBlock)\n        external\n    {\n        require(mcb.balanceOf(msg.sender) >= MIN_PROPOSAL_MCB, \"proposal privilege required\");\n        require(bytes(link).length > 0, \"empty link\");\n        require(block.number <= beginBlock, \"old proposal\");\n        require(beginBlock.add(MIN_PERIOD) <= endBlock, \"period is too short\");\n        proposals.push(Meta({\n            link: link,\n            beginBlock: beginBlock,\n            endBlock: endBlock\n        }));\n        emit Proposal(proposals.length - 1, link, beginBlock, endBlock);\n    }\n\n    /**\n     * @notice  Vote for/against the proposal with id\n     * @param   id          Proposal id\n     * @param   voteContent Vote content\n     */\n    function vote(uint256 id, Content voteContent)\n        external\n    {\n        require(id < proposals.length, \"invalid id\");\n        require(voteContent != Content.INVALID, \"invalid content\");\n        require(proposals[id].beginBlock <= block.number, \"< begin\");\n        require(block.number <= proposals[id].endBlock, \"> end\");\n        emit Vote(msg.sender, id, voteContent);\n    }\n}\n",
  "sourcePath": "/home/amxx/Work/mcdexio/vote-protocol/contracts/VoteBox.sol",
  "compiler": {
    "name": "solc",
    "version": "0.6.10+commit.00c0fcaf.Emscripten.clang"
  },
  "schemaVersion": "3.2.2",
  "updatedAt": "2020-08-07T08:34:34.608Z",
  "devdoc": {
    "methods": {
      "constructor": {
        "details": "Constructor",
        "params": {
          "mcbAddress": "MCB address"
        }
      },
      "propose(string,uint256,uint256)": {
        "details": "Create a new proposal, need a proposal privilege",
        "params": {
          "beginBlock": "Voting is enabled between [begin block, end block]",
          "endBlock": "Voting is enabled between [begin block, end block]",
          "link": "The forum link of the proposal"
        }
      },
      "totalProposals()": {
        "details": "Accessor to the total number of proposal"
      },
      "vote(uint256,uint8)": {
        "params": {
          "id": "Proposal id",
          "voteContent": "Vote content"
        }
      }
    },
    "title": "A simple smart contract which only records everyone’s voting on each proposal."
  },
  "userdoc": {
    "methods": {
      "vote(uint256,uint8)": {
        "notice": "Vote for/against the proposal with id"
      }
    }
  }
}