{
  "contractName": "VoteBox",
  "abi": [
    {
      "inputs": [
        {
          "internalType": "address",
          "name": "mcbAddress",
          "type": "address"
        }
      ],
      "stateMutability": "nonpayable",
      "type": "constructor"
    },
    {
      "anonymous": false,
      "inputs": [
        {
          "indexed": true,
          "internalType": "uint256",
          "name": "id",
          "type": "uint256"
        },
        {
          "indexed": false,
          "internalType": "string",
          "name": "link",
          "type": "string"
        },
        {
          "indexed": false,
          "internalType": "uint256",
          "name": "beginBlock",
          "type": "uint256"
        },
        {
          "indexed": false,
          "internalType": "uint256",
          "name": "endBlock",
          "type": "uint256"
        }
      ],
      "name": "Proposal",
      "type": "event"
    },
    {
      "anonymous": false,
      "inputs": [
        {
          "indexed": true,
          "internalType": "address",
          "name": "voter",
          "type": "address"
        },
        {
          "indexed": true,
          "internalType": "uint256",
          "name": "id",
          "type": "uint256"
        },
        {
          "indexed": false,
          "internalType": "enum VoteBox.Content",
          "name": "voteContent",
          "type": "uint8"
        }
      ],
      "name": "Vote",
      "type": "event"
    },
    {
      "inputs": [],
      "name": "MIN_PERIOD",
      "outputs": [
        {
          "internalType": "uint256",
          "name": "",
          "type": "uint256"
        }
      ],
      "stateMutability": "view",
      "type": "function"
    },
    {
      "inputs": [],
      "name": "MIN_PROPOSAL_MCB",
      "outputs": [
        {
          "internalType": "uint256",
          "name": "",
          "type": "uint256"
        }
      ],
      "stateMutability": "view",
      "type": "function"
    },
    {
      "inputs": [],
      "name": "mcb",
      "outputs": [
        {
          "internalType": "contract IERC20",
          "name": "",
          "type": "address"
        }
      ],
      "stateMutability": "view",
      "type": "function"
    },
    {
      "inputs": [
        {
          "internalType": "uint256",
          "name": "",
          "type": "uint256"
        }
      ],
      "name": "proposals",
      "outputs": [
        {
          "internalType": "string",
          "name": "link",
          "type": "string"
        },
        {
          "internalType": "uint256",
          "name": "beginBlock",
          "type": "uint256"
        },
        {
          "internalType": "uint256",
          "name": "endBlock",
          "type": "uint256"
        }
      ],
      "stateMutability": "view",
      "type": "function"
    },
    {
      "inputs": [
        {
          "internalType": "uint256",
          "name": "",
          "type": "uint256"
        },
        {
          "internalType": "address",
          "name": "",
          "type": "address"
        }
      ],
      "name": "votes",
      "outputs": [
        {
          "internalType": "enum VoteBox.Content",
          "name": "",
          "type": "uint8"
        }
      ],
      "stateMutability": "view",
      "type": "function"
    },
    {
      "inputs": [],
      "name": "totalProposals",
      "outputs": [
        {
          "internalType": "uint256",
          "name": "",
          "type": "uint256"
        }
      ],
      "stateMutability": "view",
      "type": "function"
    },
    {
      "inputs": [
        {
          "internalType": "string",
          "name": "link",
          "type": "string"
        },
        {
          "internalType": "uint256",
          "name": "beginBlock",
          "type": "uint256"
        },
        {
          "internalType": "uint256",
          "name": "endBlock",
          "type": "uint256"
        }
      ],
      "name": "propose",
      "outputs": [],
      "stateMutability": "nonpayable",
      "type": "function"
    },
    {
      "inputs": [
        {
          "internalType": "uint256",
          "name": "id",
          "type": "uint256"
        },
        {
          "internalType": "enum VoteBox.Content",
          "name": "voteContent",
          "type": "uint8"
        }
      ],
      "name": "vote",
      "outputs": [],
      "stateMutability": "nonpayable",
      "type": "function"
    }
  ],
  "bytecode": "0x608060405234801561001057600080fd5b5060405161099f38038061099f8339818101604052602081101561003357600080fd5b5051600080546001600160a01b039092166001600160a01b031990921691909117905561093a806100656000396000f3fe608060405234801561001057600080fd5b50600436106100885760003560e01c8063943e82161161005b578063943e8216146101e6578063a78d80fc1461020c578063bbccf15414610214578063d23254b41461021c57610088565b8063013cf08b1461008d5780632aa77c4c146101305780635e3c9773146101a857806381192eb7146101c2575b600080fd5b6100aa600480360360208110156100a357600080fd5b503561026c565b6040518080602001848152602001838152602001828103825285818151815260200191508051906020019080838360005b838110156100f35781810151838201526020016100db565b50505050905090810190601f1680156101205780820380516001836020036101000a031916815260200191505b5094505050505060405180910390f35b6101a66004803603606081101561014657600080fd5b81019060208101813564010000000081111561016157600080fd5b82018360208201111561017357600080fd5b8035906020019184600183028401116401000000008311171561019557600080fd5b919350915080359060200135610328565b005b6101b06105e7565b60408051918252519081900360200190f35b6101ca6105f5565b604080516001600160a01b039092168252519081900360200190f35b6101a6600480360360408110156101fc57600080fd5b508035906020013560ff16610604565b6101b06107de565b6101b06107e5565b6102486004803603604081101561023257600080fd5b50803590602001356001600160a01b03166107eb565b6040518082600281111561025857fe5b60ff16815260200191505060405180910390f35b6001818154811061027957fe5b60009182526020918290206003919091020180546040805160026001841615610100026000190190931692909204601f8101859004850283018501909152808252919350918391908301828280156103125780601f106102e757610100808354040283529160200191610312565b820191906000526020600020905b8154815290600101906020018083116102f557829003601f168201915b5050505050908060010154908060020154905083565b600054604080516370a0823160e01b8152336004820152905169043c33c1937564800000926001600160a01b0316916370a08231916024808301926020929190829003018186803b15801561037c57600080fd5b505afa158015610390573d6000803e3d6000fd5b505050506040513d60208110156103a657600080fd5b505110156103fb576040805162461bcd60e51b815260206004820152601b60248201527f70726f706f73616c2070726976696c6567652072657175697265640000000000604482015290519081900360640190fd5b8261043a576040805162461bcd60e51b815260206004820152600a602482015269656d707479206c696e6b60b01b604482015290519081900360640190fd5b8143111561047e576040805162461bcd60e51b815260206004820152600c60248201526b1bdb19081c1c9bdc1bdcd85b60a21b604482015290519081900360640190fd5b806104918361168063ffffffff61080b16565b11156104da576040805162461bcd60e51b81526020600482015260136024820152721c195c9a5bd9081a5cc81d1bdbc81cda1bdc9d606a1b604482015290519081900360640190fd5b6040805160806020601f87018190040282018101909252606081018581526001928291908890889081908501838280828437600092018290525093855250505060208083018790526040909201859052835460018101855593815281902082518051939460030290910192610552928492019061086c565b506020820151816001015560408201518160020155505060018080549050037f60889d4da53649cd6c3e5b75075c9436fbb04154400e5f9a94d57c99f267fc308585858560405180806020018481526020018381526020018281038252868682818152602001925080828437600083820152604051601f909101601f191690920182900397509095505050505050a250505050565b69043c33c193756480000081565b6000546001600160a01b031681565b6001548210610647576040805162461bcd60e51b815260206004820152600a6024820152691a5b9d985b1a59081a5960b21b604482015290519081900360640190fd5b600081600281111561065557fe5b141561069a576040805162461bcd60e51b815260206004820152600f60248201526e1a5b9d985b1a590818dbdb9d195b9d608a1b604482015290519081900360640190fd5b43600183815481106106a857fe5b90600052602060002090600302016001015411156106f7576040805162461bcd60e51b81526020600482015260076024820152661e103132b3b4b760c91b604482015290519081900360640190fd5b6001828154811061070457fe5b906000526020600020906003020160020154431115610752576040805162461bcd60e51b81526020600482015260056024820152640f88195b9960da1b604482015290519081900360640190fd5b60008281526002602081815260408084203385529091529091208054839260ff1990911690600190849081111561078557fe5b021790555081336001600160a01b03167fea646db319bf204816f80359be35bfd60d0daea88ac98b858a99323eb80681bc83604051808260028111156107c757fe5b60ff16815260200191505060405180910390a35050565b6001545b90565b61168081565b600260209081526000928352604080842090915290825290205460ff1681565b600082820183811015610865576040805162461bcd60e51b815260206004820152601b60248201527f536166654d6174683a206164646974696f6e206f766572666c6f770000000000604482015290519081900360640190fd5b9392505050565b828054600181600116156101000203166002900490600052602060002090601f016020900481019282601f106108ad57805160ff19168380011785556108da565b828001600101855582156108da579182015b828111156108da5782518255916020019190600101906108bf565b506108e69291506108ea565b5090565b6107e291905b808211156108e657600081556001016108f056fea2646970667358221220078cbe3e658f4e012e180800607fe3fceaa76920bd6f27f87f51ebf6d06e76c264736f6c634300060a0033",
  "immutableReferences": {},
  "source": "// SPDX-License-Identifier: UNLICENSED\npragma solidity 0.6.10;\n\nimport \"@openzeppelin/contracts/math/SafeMath.sol\";\nimport \"@openzeppelin/contracts/token/ERC20/IERC20.sol\";\n\n/**\n * @title A simple smart contract which only records everyone’s voting on each proposal.\n */\ncontract VoteBox {\n    using SafeMath for uint256;\n\n    // Meta data\n    struct Meta {\n        string link;\n        uint256 beginBlock;\n        uint256 endBlock;\n    }\n\n    // Vote content\n    enum Content { INVALID, FOR, AGAINST }\n\n    // Min MCB for creating a new proposal\n    uint256 public constant MIN_PROPOSAL_MCB = 20000 * 10**18;\n\n    // Min voting period in blocks. 1 day for 15s/block\n    uint256 public constant MIN_PERIOD = 5760;\n\n    // MCB address\n    IERC20 public mcb;\n\n    // All proposal meta data\n    Meta[] public proposals;\n\n    // All proposal vote content\n    mapping (uint256 => mapping (address => Content)) public votes;\n\n    /**\n     * @dev The new proposal is created\n     */\n    event Proposal(uint256 indexed id, string link, uint256 beginBlock, uint256 endBlock);\n\n    /**\n     * @dev Someone changes his/her vote on the proposal\n     */\n    event Vote(address indexed voter, uint256 indexed id, Content voteContent);\n\n    /**\n     * @dev    Constructor\n     * @param  mcbAddress MCB address\n     */\n    constructor(address mcbAddress)\n        public\n    {\n        mcb = IERC20(mcbAddress);\n    }\n\n    /**\n     * @dev    Accessor to the total number or proposal\n     */\n    function totalProposals()\n        external view returns (uint256)\n    {\n        return proposals.length;\n    }\n\n    /**\n     * @dev    Create a new proposal, need a proposal privilege\n     * @param  link       The forum link of the proposal\n     * @param  beginBlock Voting is enabled between [begin block, end block]\n     * @param  endBlock   Voting is enabled between [begin block, end block]\n     */\n    function propose(string calldata link, uint256 beginBlock, uint256 endBlock)\n        external\n    {\n        require(mcb.balanceOf(msg.sender) >= MIN_PROPOSAL_MCB, \"proposal privilege required\");\n        require(bytes(link).length > 0, \"empty link\");\n        require(block.number <= beginBlock, \"old proposal\");\n        require(beginBlock.add(MIN_PERIOD) <= endBlock, \"period is too short\");\n        proposals.push(Meta({\n            link: link,\n            beginBlock: beginBlock,\n            endBlock: endBlock\n        }));\n        emit Proposal(proposals.length - 1, link, beginBlock, endBlock);\n    }\n\n    /**\n     * @notice  Vote for/against the proposal with id\n     * @param   id          Proposal id\n     * @param   voteContent Vote content\n     */\n    function vote(uint256 id, Content voteContent)\n        external\n    {\n        require(id < proposals.length, \"invalid id\");\n        require(voteContent != Content.INVALID, \"invalid content\");\n        require(proposals[id].beginBlock <= block.number, \"< begin\");\n        require(block.number <= proposals[id].endBlock, \"> end\");\n        votes[id][msg.sender] = voteContent;\n        emit Vote(msg.sender, id, voteContent);\n    }\n}\n",
  "sourcePath": "/home/amxx/Work/mcdexio/vote-protocol/contracts/VoteBox.sol",
  "compiler": {
    "name": "solc",
    "version": "0.6.10+commit.00c0fcaf.Emscripten.clang"
  },
  "schemaVersion": "3.2.2",
  "updatedAt": "2020-08-06T08:26:35.239Z",
  "devdoc": {
    "methods": {
      "constructor": {
        "details": "Constructor",
        "params": {
          "mcbAddress": "MCB address"
        }
      },
      "propose(string,uint256,uint256)": {
        "details": "Create a new proposal, need a proposal privilege",
        "params": {
          "beginBlock": "Voting is enabled between [begin block, end block]",
          "endBlock": "Voting is enabled between [begin block, end block]",
          "link": "The forum link of the proposal"
        }
      },
      "totalProposals()": {
        "details": "Accessor to the total number or proposal"
      },
      "vote(uint256,uint8)": {
        "params": {
          "id": "Proposal id",
          "voteContent": "Vote content"
        }
      }
    },
    "title": "A simple smart contract which only records everyone’s voting on each proposal."
  },
  "userdoc": {
    "methods": {
      "vote(uint256,uint8)": {
        "notice": "Vote for/against the proposal with id"
      }
    }
  }
}